{
  "contractName": "SwapUsingUniswap",
  "abi": [
    {
      "inputs": [],
      "stateMutability": "nonpayable",
      "type": "constructor"
    },
    {
      "inputs": [],
      "name": "poolFee",
      "outputs": [
        {
          "internalType": "uint24",
          "name": "",
          "type": "uint24"
        }
      ],
      "stateMutability": "view",
      "type": "function"
    },
    {
      "inputs": [],
      "name": "swapRouter",
      "outputs": [
        {
          "internalType": "contract ISwapRouter",
          "name": "",
          "type": "address"
        }
      ],
      "stateMutability": "view",
      "type": "function"
    },
    {
      "inputs": [
        {
          "internalType": "uint256",
          "name": "amountIn",
          "type": "uint256"
        }
      ],
      "name": "swapExactUsdtForWeth",
      "outputs": [
        {
          "internalType": "uint256",
          "name": "amountOut",
          "type": "uint256"
        }
      ],
      "stateMutability": "nonpayable",
      "type": "function"
    },
    {
      "inputs": [
        {
          "internalType": "uint256",
          "name": "amountIn",
          "type": "uint256"
        }
      ],
      "name": "swapExactWethforUsdt",
      "outputs": [
        {
          "internalType": "uint256",
          "name": "amountOut",
          "type": "uint256"
        }
      ],
      "stateMutability": "nonpayable",
      "type": "function"
    }
  ],
  "bytecode": "0x60a060405234801561001057600080fd5b5073e592427a0aece92de3edee1f18e0157c0586156473ffffffffffffffffffffffffffffffffffffffff1660808173ffffffffffffffffffffffffffffffffffffffff1660601b8152505060805160601c610c746100966000396000818161012f0152818161021d015281816102d00152818161032e015261041c0152610c746000f3fe608060405234801561001057600080fd5b506004361061004c5760003560e01c8063089fe6aa146100515780636e9db2e41461006f578063c31c9c071461009f578063eced5959146100bd575b600080fd5b6100596100ed565b6040516100669190610ab3565b60405180910390f35b610089600480360381019061008491906107e2565b6100f3565b6040516100969190610ace565b60405180910390f35b6100a76102ce565b6040516100b49190610a3c565b60405180910390f35b6100d760048036038101906100d291906107e2565b6102f2565b6040516100e49190610ace565b60405180910390f35b610bb881565b600061011573c02aaa39b223fe8d0a0e5c4f27ead9083c756cc23330856104cd565b61015473c02aaa39b223fe8d0a0e5c4f27ead9083c756cc27f000000000000000000000000000000000000000000000000000000000000000084610625565b600060405180610100016040528073c02aaa39b223fe8d0a0e5c4f27ead9083c756cc273ffffffffffffffffffffffffffffffffffffffff16815260200173dac17f958d2ee523a2206206994597c13d831ec773ffffffffffffffffffffffffffffffffffffffff168152602001610bb862ffffff1681526020013373ffffffffffffffffffffffffffffffffffffffff16815260200142815260200184815260200160008152602001600073ffffffffffffffffffffffffffffffffffffffff1681525090507f000000000000000000000000000000000000000000000000000000000000000073ffffffffffffffffffffffffffffffffffffffff1663414bf389826040518263ffffffff1660e01b81526004016102749190610a97565b602060405180830381600087803b15801561028e57600080fd5b505af11580156102a2573d6000803e3d6000fd5b505050506040513d601f19601f820116820180604052508101906102c6919061080b565b915050919050565b7f000000000000000000000000000000000000000000000000000000000000000081565b600061031473dac17f958d2ee523a2206206994597c13d831ec73330856104cd565b61035373dac17f958d2ee523a2206206994597c13d831ec77f000000000000000000000000000000000000000000000000000000000000000084610625565b600060405180610100016040528073dac17f958d2ee523a2206206994597c13d831ec773ffffffffffffffffffffffffffffffffffffffff16815260200173c02aaa39b223fe8d0a0e5c4f27ead9083c756cc273ffffffffffffffffffffffffffffffffffffffff168152602001610bb862ffffff1681526020013373ffffffffffffffffffffffffffffffffffffffff16815260200142815260200184815260200160008152602001600073ffffffffffffffffffffffffffffffffffffffff1681525090507f000000000000000000000000000000000000000000000000000000000000000073ffffffffffffffffffffffffffffffffffffffff1663414bf389826040518263ffffffff1660e01b81526004016104739190610a97565b602060405180830381600087803b15801561048d57600080fd5b505af11580156104a1573d6000803e3d6000fd5b505050506040513d601f19601f820116820180604052508101906104c5919061080b565b915050919050565b6000808573ffffffffffffffffffffffffffffffffffffffff166323b872dd60e01b868686604051602401610504939291906109dc565b604051602081830303815290604052907bffffffffffffffffffffffffffffffffffffffffffffffffffffffff19166020820180517bffffffffffffffffffffffffffffffffffffffffffffffffffffffff838183161783525050505060405161056e91906109c5565b6000604051808303816000865af19150503d80600081146105ab576040519150601f19603f3d011682016040523d82523d6000602084013e6105b0565b606091505b50915091508180156105de57506000815114806105dd5750808060200190518101906105dc91906107b9565b5b5b61061d576040517f08c379a000000000000000000000000000000000000000000000000000000000815260040161061490610a77565b60405180910390fd5b505050505050565b6000808473ffffffffffffffffffffffffffffffffffffffff1663095ea7b360e01b858560405160240161065a929190610a13565b604051602081830303815290604052907bffffffffffffffffffffffffffffffffffffffffffffffffffffffff19166020820180517bffffffffffffffffffffffffffffffffffffffffffffffffffffffff83818316178352505050506040516106c491906109c5565b6000604051808303816000865af19150503d8060008114610701576040519150601f19603f3d011682016040523d82523d6000602084013e610706565b606091505b5091509150818015610734575060008151148061073357508080602001905181019061073291906107b9565b5b5b610773576040517f08c379a000000000000000000000000000000000000000000000000000000000815260040161076a90610a57565b60405180910390fd5b5050505050565b60008151905061078981610c10565b92915050565b60008135905061079e81610c27565b92915050565b6000815190506107b381610c27565b92915050565b6000602082840312156107cb57600080fd5b60006107d98482850161077a565b91505092915050565b6000602082840312156107f457600080fd5b60006108028482850161078f565b91505092915050565b60006020828403121561081d57600080fd5b600061082b848285016107a4565b91505092915050565b61083d81610b10565b82525050565b61084c81610b10565b82525050565b600061085d82610ae9565b6108678185610af4565b9350610877818560208601610b8b565b80840191505092915050565b61088c81610b67565b82525050565b600061089f600283610aff565b91506108aa82610bbe565b602082019050919050565b60006108c2600383610aff565b91506108cd82610be7565b602082019050919050565b610100820160008201516108ef6000850182610834565b5060208201516109026020850182610834565b5060408201516109156040850182610989565b5060608201516109286060850182610834565b50608082015161093b60808501826109a7565b5060a082015161094e60a08501826109a7565b5060c082015161096160c08501826109a7565b5060e082015161097460e085018261097a565b50505050565b61098381610b2e565b82525050565b61099281610b4e565b82525050565b6109a181610b4e565b82525050565b6109b081610b5d565b82525050565b6109bf81610b5d565b82525050565b60006109d18284610852565b915081905092915050565b60006060820190506109f16000830186610843565b6109fe6020830185610843565b610a0b60408301846109b6565b949350505050565b6000604082019050610a286000830185610843565b610a3560208301846109b6565b9392505050565b6000602082019050610a516000830184610883565b92915050565b60006020820190508181036000830152610a7081610892565b9050919050565b60006020820190508181036000830152610a90816108b5565b9050919050565b600061010082019050610aad60008301846108d8565b92915050565b6000602082019050610ac86000830184610998565b92915050565b6000602082019050610ae360008301846109b6565b92915050565b600081519050919050565b600081905092915050565b600082825260208201905092915050565b6000610b1b82610b2e565b9050919050565b60008115159050919050565b600073ffffffffffffffffffffffffffffffffffffffff82169050919050565b600062ffffff82169050919050565b6000819050919050565b6000610b7282610b79565b9050919050565b6000610b8482610b2e565b9050919050565b60005b83811015610ba9578082015181840152602081019050610b8e565b83811115610bb8576000848401525b50505050565b7f5341000000000000000000000000000000000000000000000000000000000000600082015250565b7f5354460000000000000000000000000000000000000000000000000000000000600082015250565b610c1981610b22565b8114610c2457600080fd5b50565b610c3081610b5d565b8114610c3b57600080fd5b5056fea2646970667358221220bf7f8d815a751dd81992a5a927ff8323c4a2a6c34b73fbcefc092d2d9f4f554e64736f6c63430008010033",
  "immutableReferences": {
    "99": [
      {
        "length": 32,
        "start": 303
      },
      {
        "length": 32,
        "start": 541
      },
      {
        "length": 32,
        "start": 720
      },
      {
        "length": 32,
        "start": 814
      },
      {
        "length": 32,
        "start": 1052
      }
    ]
  },
  "source": "// SPDX-License-Identifier: GPL-2.0-or-later\n// pragma solidity =0.7.6;\npragma solidity ^0.8.1;\n\npragma abicoder v2;\n\nimport '../node_modules/@uniswap/v3-periphery/contracts/interfaces/ISwapRouter.sol';\nimport '../node_modules/@uniswap/v3-periphery/contracts/libraries/TransferHelper.sol';\n\n\ncontract SwapUsingUniswap {\n    // For the scope of these swap examples,\n    // we will detail the design considerations when using\n    // `exactInput`, `exactInputSingle`, `exactOutput`, and  `exactOutputSingle`.\n\n    // It should be noted that for the sake of these examples, we purposefully pass in the swap router instead of inherit the swap router for simplicity.\n    // More advanced example contracts will detail how to inherit the swap router safely.\n\n    ISwapRouter public immutable swapRouter;\n\n    // This example swaps USDT/WETH for single path swaps and USDT/USDC/WETH for multi path swaps.\n\n\n\n    address private constant WETH = 0xC02aaA39b223FE8D0A0e5C4F27eAD9083C756Cc2;\n    address private constant USDT = 0xdAC17F958D2ee523a2206206994597C13D831ec7;\n    \n\n    // For this example, we will set the pool fee to 0.3%.\n    uint24 public constant poolFee = 3000;\n\n    constructor() {\n        swapRouter = ISwapRouter(0xE592427A0AEce92De3Edee1F18E0157C05861564);\n    }\n\n    /// @notice swapExactUsdtForWeth swaps a fixed amount of USDT for a maximum possible amount of WETH\n    /// using the USDT/WETH 0.3% pool by calling `exactInputSingle` in the swap router.\n    /// @dev The calling address must approve this contract to spend at least `amountIn` worth of its USDT for this function to succeed.\n    /// @param amountIn The exact amount of USDT that will be swapped for WETH.\n    /// @return amountOut The amount of WETH received.\n    function swapExactUsdtForWeth(uint256 amountIn) external returns (uint256 amountOut) {\n        // msg.sender must approve this contract\n\n        // Transfer the specified amount of USDT to this contract.\n        TransferHelper.safeTransferFrom(USDT, msg.sender, address(this), amountIn);\n\n        // Approve the router to spend USDT.\n        TransferHelper.safeApprove(USDT, address(swapRouter), amountIn);\n\n        // Naively set amountOutMinimum to 0. In production, use an oracle or other data source to choose a safer value for amountOutMinimum.\n        // We also set the sqrtPriceLimitx96 to be 0 to ensure we swap our exact input amount.\n        ISwapRouter.ExactInputSingleParams memory params =\n            ISwapRouter.ExactInputSingleParams({\n                tokenIn: USDT,\n                tokenOut: WETH,\n                fee: poolFee,\n                recipient: msg.sender,\n                deadline: block.timestamp,\n                amountIn: amountIn,\n                amountOutMinimum: 0,\n                sqrtPriceLimitX96: 0\n            });\n\n        // The call to `exactInputSingle` executes the swap.\n        amountOut = swapRouter.exactInputSingle(params);\n    }\n\n    /// @notice swapExactUsdtForWeth swaps a fixed amount of WETH for a maximum possible amount of USDT\n    /// using the WETH/USDT 0.3% pool by calling `exactInputSingle` in the swap router.\n    /// @dev The calling address must approve this contract to spend at least `amountIn` worth of its WETH for this function to succeed.\n    /// @param amountIn The exact amount of WETH that will be swapped for USDT.\n    /// @return amountOut The amount of USDT received.\n    function swapExactWethforUsdt(uint256 amountIn) external returns (uint256 amountOut) {\n        // msg.sender must approve this contract\n\n        // Transfer the specified amount of WETH to this contract.\n        TransferHelper.safeTransferFrom(WETH, msg.sender, address(this), amountIn);\n\n        // Approve the router to spend WETH.\n        TransferHelper.safeApprove(WETH, address(swapRouter), amountIn);\n\n        // Naively set amountOutMinimum to 0. In production, use an oracle or other data source to choose a safer value for amountOutMinimum.\n        // We also set the sqrtPriceLimitx96 to be 0 to ensure we swap our exact input amount.\n        ISwapRouter.ExactInputSingleParams memory params =\n            ISwapRouter.ExactInputSingleParams({\n                tokenIn: WETH,\n                tokenOut: USDT,\n                fee: poolFee,\n                recipient: msg.sender,\n                deadline: block.timestamp,\n                amountIn: amountIn,\n                amountOutMinimum: 0,\n                sqrtPriceLimitX96: 0\n            });\n\n        // The call to `exactInputSingle` executes the swap.\n        amountOut = swapRouter.exactInputSingle(params);\n    }\n\n    \n\n}",
  "sourcePath": "/home/mnaga/Downloads/blockchain/learningDefi/fresh/contracts/SwapUsingUniswap.sol",
  "compiler": {
    "name": "solc",
    "version": "0.8.1+commit.df193b15.Emscripten.clang"
  },
  "schemaVersion": "3.4.3",
  "updatedAt": "2021-12-27T22:27:09.714Z",
  "devdoc": {
    "kind": "dev",
    "methods": {
      "swapExactUsdtForWeth(uint256)": {
        "details": "The calling address must approve this contract to spend at least `amountIn` worth of its USDT for this function to succeed.",
        "params": {
          "amountIn": "The exact amount of USDT that will be swapped for WETH."
        },
        "returns": {
          "amountOut": "The amount of WETH received."
        }
      },
      "swapExactWethforUsdt(uint256)": {
        "details": "The calling address must approve this contract to spend at least `amountIn` worth of its WETH for this function to succeed.",
        "params": {
          "amountIn": "The exact amount of WETH that will be swapped for USDT."
        },
        "returns": {
          "amountOut": "The amount of USDT received."
        }
      }
    },
    "version": 1
  },
  "userdoc": {
    "kind": "user",
    "methods": {
      "swapExactUsdtForWeth(uint256)": {
        "notice": "swapExactUsdtForWeth swaps a fixed amount of USDT for a maximum possible amount of WETH using the USDT/WETH 0.3% pool by calling `exactInputSingle` in the swap router."
      },
      "swapExactWethforUsdt(uint256)": {
        "notice": "swapExactUsdtForWeth swaps a fixed amount of WETH for a maximum possible amount of USDT using the WETH/USDT 0.3% pool by calling `exactInputSingle` in the swap router."
      }
    },
    "version": 1
  }
}